:100000000C942A000C943F000C943F000C943F0089
:100010000C943F000C943F000C943F000C943F0064
:100020000C943F000C943F000C943F000C943F0054
:100030000C943F000C943F000C943F000C943F0044
:100040000C943F000C943F000C943F000C943F0034
:100050000C943F0011241FBECFE5D8E0DEBFCDBF1A
:1000600010E0A0E6B0E0E4E0F3E002C005900D92FD
:10007000A836B107D9F70E945A010C9480010C945C
:10008000000080EF84BB8FEF85BB089560E070E0D7
:100090008BC085B3806185BB85B3806285BB85B32A
:1000A000806485BB85B3806885BB25B3FB01EE0FFB
:1000B000FF1FE05AFF4F81E090E0008002C0880FF0
:1000C000991F0A94E2F78095822385BB20E030E0F7
:1000D00065C083B341E050E0022E02C0440F551FBB
:1000E0000A94E2F790E084239523022E02C09595AE
:1000F00087950A94E2F7892B09F04EC083B390E00C
:1001000084239523022E02C0959587950A94E2F7E1
:10011000892BA1F361307105C9F024F461157105D3
:1001200041F03AC062307105F1F06330710541F180
:1001300033C021153105F1F121303105E9F12230CB
:100140003105E1F12330310539F53AC0211531058A
:10015000C9F121303105C1F122303105B9F1233027
:100160003105D1F435C021153105A1F1213031051A
:1001700099F12230310591F12330310569F430C015
:100180002115310579F12130310571F12230310528
:1001900069F12330310561F12F5F3F4F2430310584
:1001A0000CF497CF6F5F7F4F643071050CF471CF03
:1001B0008EE4089587E3089584E3089581E3089524
:1001C00081E2089588E3089585E3089582E3089520
:1001D00080E3089589E3089586E3089583E308950D
:1001E0008DE308958FE208958AE208958DE20895DF
:1001F0008BE2089588B3877F88BB2FE788E391E07F
:10020000215080409040E1F700C0000088B3886032
:1002100088BB089598B39B7F98BB98B39D7F98BB8C
:100220008BBB0E94FA00089581E00E940A010895A4
:100230008FE39CE90197F1F700C0000087B38E605F
:1002400087BB88B3817F88BB8FE295E70197F1F781
:1002500000C000008FEF8ABB0E94140182E00E9460
:100260000A0188E30E940A0186E00E940A0180E8F0
:100270000E940A018FE00E940A01089598B39B7FB3
:1002800098BB98B3926098BB8BBB0E94FA0008950C
:10029000811107C0603168F480E8860F0E940A016E
:1002A0000895813031F4603120F480EC860F0E9493
:1002B0000A0108950E9418010E944100C0E0D0E0A8
:1002C0000E944600813219F08E34D1F303C00E949F
:1002D0001401F6CF0E943E012196C031D10521F4D0
:1002E00060E081E00E944801C132D10549F70E94D7
:1002F000140160E080E00E944801C0E0D0E0E0CF5F
:04030000F894FFCF9F
:080304000400050006000700DB
:00000001FF
