:020000040800F2
:100000000028002059020008A9020008A9020008DF
:10001000A9020008A9020008A902000800000000C7
:10002000000000000000000000000000A90200081D
:10003000A902000800000000A9020008A9020008A7
:10004000A9020008A9020008A9020008A9020008E4
:10005000A9020008A90200082D020008A902000850
:10006000A9020008A9020008A9020008A9020008C4
:10007000A9020008A9020008A9020008A9020008B4
:10008000A9020008A9020008A9020008A9020008A4
:10009000A9020008A9020008A9020008A902000894
:1000A000A9020008A9020008A9020008A902000884
:1000B000A9020008A9020008A9020008A902000874
:1000C000A9020008A9020008A9020008A902000864
:1000D000A9020008A9020008A9020008A902000854
:1000E000A9020008A902000800000000A9020008F7
:1000F000A9020008A9020008A9020008A902000834
:10010000A9020008A9020008A9020008A902000823
:10011000A9020008A9020008A9020008A902000813
:10012000A9020008A9020008A9020008A902000803
:1001300010B5054C237833B9044B13B10448AFF321
:1001400000800123237010BD00000020000000008B
:10015000F402000808B5034B1BB103490348AFF391
:10016000008008BD0000000004000020F402000828
:1001700080B500AF00F01AF800F004F800F032F893
:10018000FEE7000080B400AF074B1B68064A43F04F
:1001900004031360044B1B68034A43F0010313601C
:1001A00000BFBD4680BC70471810024080B400AF4D
:1001B0000A4B1B68094A23F470031360074B1B6842
:1001C000064A43F400131360054B1B68044A43F0CE
:1001D0000403136000BFBD4680BC704704080140A3
:1001E0000008014080B400AF0C4B1B680B4A43F081
:1001F000010313600A4B1B68094A43F001031360B3
:10020000084B00221A60084B1B68074A43F0400362
:10021000136000BFBD4680BC704700BF00040140B2
:10022000080401400800014000E100E080B400AF94
:10023000074B1B68064A83F400531360054B1B6889
:10024000044A43F00103136000BFBD4680BC704701
:100250000C080140140401400D488546AFF30080AE
:100260000C480D490D4A002302E0D458C450043311
:10027000C4188C42F9D30A4A0A4C002301E01360E7
:100280000432A242FBD300F011F8FFF771FFFEE742
:1002900000280020000000200000002014030008B7
:1002A000000000201C000020FEE7000070B50025C3
:1002B0000C4E0D4CA41BA410A54209D100F01AF855
:1002C00000250A4E0A4CA41BA410A54205D170BDFE
:1002D00056F8253098470135EEE756F8253098470F
:1002E0000135F2E70C0300080C0300080C030008BA
:1002F00010030008F8B500BFF8BC08BC9E46704764
:0C030000F8B500BFF8BC08BC9E46704772
:04030C00550100088F
:0403100031010008AF
:040000050800025994
:00000001FF
