:100000000C9466000C9483000C9483000C94830081
:100010000C9483000C9483000C9483000C94830054
:100020000C9483000C9483000C9483000C94830044
:100030000C9483000C9483000C9483000C94830034
:100040000C9483000C9483000C9483000C94830024
:100050000C948300B503BC03BC03BC03BC03A00326
:100060009003BC039803BC03A80340034803500358
:100070005803600368037003780380038803BC039C
:10008000BC03BC03BC03BC03BC03BC03BC03BC0378
:10009000BC03BC03BC03BC03BC03BC03BC03BC0368
:1000A000BC03BC03BC03BC03BC03BC03BC03B00364
:1000B00003040B0413041B0423042B0433043B0428
:1000C00043044B045B045B045B04530411241FBE14
:1000D000CFE5D8E0DEBFCDBF10E0A0E6B0E0EEECAB
:1000E000FFE002C005900D92A436B107D9F720E0D9
:1000F000A4E6B0E001C01D92AE36B207E1F70E945F
:100100001F030C94E5070C94000011BA8FE384BB25
:1001100085BB8FE082BB089560E070E0ADC08FE3E7
:1001200085BB25B381E090E0062E02C0880F991FA1
:100130000A94E2F78095822385BB20E030E096C0E8
:1001400080B341E050E0022E02C0440F551F0A94D4
:10015000E2F790E084239523022E02C095958795BF
:100160000A94E2F7892B09F07FC080B390E08423E2
:100170009523022E02C0959587950A94E2F7892B64
:10018000A1F36230710599F13CF46115710571F0CC
:1001900061307105E1F068C06430710509F447C051
:1001A000B4F16530710509F452C05EC02115310506
:1001B00009F468C02130310509F466C022303105E8
:1001C00009F464C02330310509F04EC061C0211527
:1001D000310509F45FC02130310509F45DC02230DA
:1001E000310509F45BC023303105F1F559C0211503
:1001F000310509F457C02130310509F455C02230CA
:10020000310509F453C02330310571F551C0211572
:10021000310509F44FC02130310509F44DC02230B9
:10022000310509F44BC023303105F1F449C02115E3
:10023000310509F447C02130310509F445C02230A9
:10024000310509F443C02330310571F441C0211553
:10025000310509F43FC021303105F1F1223031057B
:10026000E9F123303105E1F12F5F3F4F24303105B3
:100270000CF466CF6F5F7F4F663071050CF44FCF83
:100280008EE4089581E208958EE4089585E208954C
:1002900082E5089587E3089584E3089581E308954E
:1002A00080E3089588E3089585E3089582E308953F
:1002B0008EE2089589E3089586E3089583E308951F
:1002C0008DE308958AE208958DE208958BE2089502
:1002D0008BE208958FE208958EE408958DE40895E9
:1002E0008DE4089588B38D7F88BB2FE788E391E084
:1002F000215080409040E1F700C0000088B3826048
:1003000088BB089598B39B7F98BB98B3977F98BBA1
:100310008BBB0E947201089581E00E9482010895C2
:100320008FE39CE90197F1F700C0000087B38E606E
:1003300087BB88B3817F88BB8FE295E70197F1F790
:1003400000C000008FEF8ABB0E948C0182E00E94F7
:10035000820188E30E94820186E00E94820180E897
:100360000E9482018FE00E948201089598B39B7FD2
:1003700098BB98B3986098BB8BBB0E94720108959C
:10038000811107C0603168F480E8860F0E94820105
:100390000895813031F4603120F480EC860F0E94A2
:1003A000820108950F931F93CF93DF938C01C0E0D8
:1003B000D0E018C021960F5F1F4F0E94B601C031D8
:1003C000D10529F460E081E00E94C0010BC0C13278
:1003D000D10541F40E948C0160E080E00E94C001E0
:1003E000C0E0D0E0F80180818111E4CFDF91CF91AE
:1003F0001F910F9108950F931F93CF93DF93CDB764
:10040000DEB72A970FB6F894DEBF0FBECDBF9F931D
:100410008F9380E690E09F938F938E010F5F1F4F25
:100420001F930F930E94FB04C8010E94D2010F90FA
:100430000F900F900F900F900F902A960FB6F89490
:10044000DEBF0FBECDBFDF91CF911F910F910895F9
:100450008230910589F12CF4009759F0019789F0C9
:1004600008958330910509F455C0049709F493C0A9
:10047000089570E06053710970936D0060936C0093
:10048000089580916C0090916D009C01220F331FA4
:10049000880F991F880F991F880F991F820F931F2C
:1004A00090936D0080936C0070E0605371097093BD
:1004B0006B0060936A00089580916C0090916D00CC
:1004C0009C01220F331F880F991F880F991F880FD7
:1004D000991F820F931F90936D0080936C00809101
:1004E0006A0090916B009C01220F331F880F991FA7
:1004F000880F991F880F991F820F931F90936B008D
:1005000080936A0070E06053710970936900609392
:100510006800089580916C0090916D009C01220FFD
:10052000331F880F991F880F991F880F991F820FFB
:10053000931F90936D0080936C0080916A0090915E
:100540006B009C01220F331F880F991F880F991F82
:10055000880F991F820F931F90936B0080936A00FE
:1005600080916800909169009C01220F331F880FD1
:10057000991F880F991F880F991F820F931F9093BF
:1005800069008093680070E06053710970936700A0
:1005900060936600089580916C0090916D009C01BD
:1005A000220F331F880F991F880F991F880F991FDB
:1005B000820F931F90936D0080936C0080916A006E
:1005C00090916B009C01220F331F880F991F880F99
:1005D000991F880F991F820F931F90936B00809330
:1005E0006A0080916800909169009C01220F331F7E
:1005F000880F991F880F991F880F991F820F931FCB
:1006000090936900809368008091660090916700E4
:100610009C01220F331F880F991F880F991F880F85
:10062000991F820F931F909367008093660070E07C
:1006300060537109709365006093640008950E948F
:1006400090010E948500C0E0D0E0612C712C412C0B
:10065000512C812C912CA12CB12CC12CD12C01E03E
:1006600010E08AC00E948C00F82E90E0FC01B59743
:10067000EE32F10508F080C0E65DFF4F0C94E10416
:100680000E94B6016F2DCE010E942802219674C0EF
:100690000E94B6016F2DCE010E94280221966CC0E7
:1006A0000E94B6016F2DCE010E942802219664C0DF
:1006B0000E94B6016F2DCE010E94280221965CC0D7
:1006C0000E94B6016F2DCE010E942802219654C0CF
:1006D0000E94B6016F2DCE010E94280221964CC0C7
:1006E0000E94B6016F2DCE010E942802219644C0BF
:1006F0000E94B6016F2DCE010E94280221963CC0B7
:100700000E94B6016F2DCE010E942802219634C0AE
:100710000E94B6016F2DCE010E94280221962CC0A6
:100720000E94B601CC24C394D12C00E010E024C078
:100730000E94B601AA24A394B12C00E010E01CC0D2
:100740000E94B60188248394912C00E010E014C02C
:100750000E94B60144244394512C00E010E00CC0E8
:100760000E94B60100E010E007C00E94B6016624B6
:100770006394712C00E010E00115110509F072CFAF
:10078000E0906C00F0906D0080916A0090916B0099
:10079000E80EF91E8091680090916900E80EF91E3C
:1007A0008091660090916700E80EF91E80916400C8
:1007B00090916500E80EF91E10926D0010926C0089
:1007C00010926B0010926A001092690010926800FB
:1007D00010926700109266001092650010926400FB
:1007E000C0E0D0E001E010E066C00E948C00382E2E
:1007F00090E0FC01F097EE30F10508F05CC0E85A9B
:10080000FF4F0C94E1040E94B601632DCE010E94BB
:100810002802219650C00E94B601632DCE010E948D
:100820002802219648C00E94B601632DCE010E9485
:100830002802219640C00E94B601632DCE010E947D
:100840002802219638C00E94B601632DCE010E9475
:100850002802219630C00E94B601632DCE010E946D
:100860002802219628C00E94B601632DCE010E9465
:100870002802219620C00E94B601632DCE010E945D
:100880002802219618C00E94B601632DCE010E9455
:100890002802219610C00E94B601632DCE010E944D
:1008A0002802219608C00E94B60160E081E00E9403
:1008B000C00100E010E00115110509F096CF20916C
:1008C0006C0030916D0080916A0090916B00820FF6
:1008D000931F2091680030916900820F931F20912F
:1008E000660030916700820F931F609164007091E1
:1008F0006500680F791FC114D10431F0C701860F5C
:10090000971F0E94FB0128C0A114B10431F0C70158
:10091000861B970B0E94FB011FC08114910451F0AC
:10092000E69EC001E79E900DF69E900D11240E9458
:10093000FB0112C06114710431F0C7010E94CD04A3
:100940000E94FB0109C04114510431F0C7010E940B
:10095000CD04CB010E94FB010E948C008132E1F7A3
:100960000E948C0160E080E00E94C00110926D0046
:1009700010926C0010926B0010926A001092690045
:100980001092680010926700109266001092650045
:100990001092640001E010E0EFCE97FB072E16F4F2
:1009A000009407D077FD09D00E94E70407FC05D02A
:1009B0003EF4909581959F4F0895709561957F4F76
:1009C0000895EE0FFF1F0590F491E02D0994AA1BE6
:1009D000BB1B51E107C0AA1FBB1FA617B70710F02A
:1009E000A61BB70B881F991F5A95A9F7809590955C
:1009F000BC01CD010895AEE0B0E0E1E0F5E00C947B
:100A0000BC070D891E8986E08C831A8309838FEFCA
:100A10009FE79E838D83AE01475E5F4F6F89788D20
:100A2000CE0101960E941D05EF81F885E00FF11FB0
:100A300010822E96E4E00C94D807ABE0B0E0E3E23D
:100A4000F5E00C94AE076C017B018A01FC01178272
:100A50001682838181FFCCC1CE0101963C01F60153
:100A60009381F70193FD859193FF81917F01882305
:100A700009F4BAC1853239F493FD859193FF8191D0
:100A80007F01853229F4B60190E00E941407E7CF78
:100A9000912C212C312CFFE1F315D8F08B3279F019
:100AA00038F4803279F08332A1F4232D20611DC007
:100AB0008D3261F0803369F4232D216016C0832DBF
:100AC0008260382EE32DE4603E2E2AC0F32DF860BC
:100AD0001DC037FC2DC020ED280F2A3040F08E328B
:100AE000B9F436FC81C1232D2064322E19C036FEA4
:100AF00006C08AE0989E200D1124922E11C0EAE0D3
:100B00002E9E200D1124222EF32DF0623F2E08C0C0
:100B10008C3621F4832D8068382E02C0883641F44B
:100B2000F70193FD859193FF81917F018111B3CFEF
:100B3000982F9F7D9554933028F40C5F1F4F9FE3AF
:100B400099830DC0833631F0833771F0833509F016
:100B500059C021C0F801808189830E5F1F4F88240E
:100B60008394912C530113C02801F2E04F0E511CC5
:100B7000F801A080B18036FE03C0692D70E002C08C
:100B80006FEF7FEFC5010E9409074C018201F32D31
:100B9000FF773F2E16C0280122E0420E511CF801BB
:100BA000A080B18036FE03C0692D70E002C06FEFF7
:100BB0007FEFC5010E94FE064C01F32DF0683F2E29
:100BC000820133FC1BC0822D90E088169906B0F498
:100BD000B60180E290E00E9414072A94F4CFF50158
:100BE00037FC859137FE81915F01B60190E00E944C
:100BF000140721102A9421E0821A9108811491048B
:100C000071F7E8C0843611F0893641F5F80137FEF6
:100C100007C060817181828193810C5F1F4F08C082
:100C200060817181072E000C880B990B0E5F1F4F9E
:100C3000F32DFF763F2E97FF09C090958095709514
:100C400061957F4F8F4F9F4FF0683F2E2AE030E035
:100C5000A3010E945007882E861845C0853731F4BD
:100C6000232D2F7EB22E2AE030E025C0932D997FD0
:100C7000B92E8F36C1F018F4883579F0B5C08037B9
:100C800019F0883721F0B0C0E92FE061BE2EB4FE24
:100C90000DC0FB2DF460BF2E09C034FE0AC0292F01
:100CA0002660B22E06C028E030E005C020E130E02A
:100CB00002C020E132E0F801B7FE07C06081718117
:100CC000828193810C5F1F4F06C06081718180E03B
:100CD00090E00E5F1F4FA3010E945007882E8618D8
:100CE000FB2DFF773F2E36FE0DC0232D2E7FA22E2B
:100CF000891458F434FE0BC032FC09C0832D8E7E5B
:100D0000A82E05C0B82CA32C03C0B82C01C0B92C48
:100D1000A4FE0FC0FE01E80DF11D8081803321F497
:100D20009A2D997EA92E09C0A2FE06C0B394B39451
:100D300004C08A2D867809F0B394A3FC11C0A0FEEC
:100D400006C0B21488F4280C922C9B180EC0B21462
:100D500060F4B60180E290E00E941407B394F7CFEC
:100D6000B21418F42B1802C0982C212CA4FE10C029
:100D7000B60180E390E00E941407A2FE17C0A1FC18
:100D800003C088E790E002C088E590E0B6010CC09F
:100D90008A2D867859F0A1FE02C08BE201C080E264
:100DA000A7FC8DE2B60190E00E941407891438F484
:100DB000B60180E390E00E9414079A94F7CF8A94DA
:100DC000F301E80DF11D8081B60190E00E94140747
:100DD0008110F5CF222009F442CEB60180E290E0E6
:100DE0000E9414072A94F6CFF6018681978102C0EB
:100DF0008FEF9FEF2B96E2E10C94CA07FC01059060
:100E0000615070400110D8F7809590958E0F9F1F0C
:100E10000895FC016150704001900110D8F7809551
:100E200090958E0F9F1F08950F931F93CF93DF937D
:100E3000FB01238121FD03C08FEF9FEF2CC022FF18
:100E400016C046815781248135814217530744F4E7
:100E5000A081B1819D012F5F3F4F318320838C930F
:100E6000268137812F5F3F4F3783268314C08B0144
:100E7000EC01FB010084F185E02D0995892BE1F659
:100E8000D80116968D919C911797019617969C9371
:100E90008E931697CE01DF91CF911F910F910895F8
:100EA000FA01AA27283051F1203181F1E8946F939B
:100EB0006E7F6E5F7F4F8F4F9F4FAF4FB1E03ED041
:100EC000B4E03CD0670F781F891F9A1FA11D680FDF
:100ED000791F8A1F911DA11D6A0F711D811D911D12
:100EE000A11D20D009F468943F912AE0269F112487
:100EF0003019305D3193DEF6CF010895462F4770EB
:100F0000405D4193B3E00FD0C9F7F6CF462F4F7045
:100F1000405D4A3318F0495D31FD4052419302D0A3
:100F2000A9F7EACFB4E0A695979587957795679549
:100F3000BA95C9F700976105710508959B01AC0149
:100F40000A2E06945795479537952795BA95C9F770
:100F5000620F731F841F951FA01D08952F923F924B
:100F60004F925F926F927F928F929F92AF92BF92B9
:100F7000CF92DF92EF92FF920F931F93CF93DF9365
:100F8000CDB7DEB7CA1BDB0B0FB6F894DEBF0FBEC2
:100F9000CDBF09942A88398848885F846E847D840F
:100FA0008C849B84AA84B984C884DF80EE80FD8011
:100FB0000C811B81AA81B981CE0FD11D0FB6F89487
:0E0FC000DEBF0FBECDBFED010895F894FFCF48
:040FCE002564000096
:00000001FF
