:100000000C942A000C946F000C9492000C94B50090
:100010000C94D8000C94D8000C94D8000C94D80000
:100020000C94D8000C94D8000C94D8000C94D800F0
:100030000C94D8000C94D8000C94D8000C94D800E0
:100040000C94D8000C94D8000C94D8000C94D800D0
:100050000C94D80011241FBECFE5D8E0DEBFCDBF81
:0C0060000E9436000C943400F894FFCF8E
:10006C0081B392B3806292BB81BB81B392B3806443
:10007C0092BB81BB81B392B3806892BB81BB8BB7BF
:10008C009CB780629CBF8BBF8BB79CB780649CBFB6
:10009C008BBF8BB79CB780689CBF8BBF85B796B75F
:1000AC00816096BF85BF85B796B78D7F96BF85BF9C
:1000BC0085B796B7846096BF85BF85B796B78860BD
:1000CC0096BF85BF84B795B78F7B95BF84BF789457
:0200DC00FFCF54
:1000DE001F920F920FB60F9211242F938F939F930F
:1000EE0082B393B3806293BB82BB2FEF80E792E023
:1000FE00215080409040E1F700C0000082B393B3DE
:10010E008F7D93BB82BB9F918F912F910F900FBECE
:06011E000F901F901895E0
:100124001F920F920FB60F9211242F938F939F93C8
:1001340082B393B3806493BB82BB2FEF80E792E0DA
:10014400215080409040E1F700C0000082B393B397
:100154008F7B93BB82BB9F918F912F910F900FBE8A
:060164000F901F9018959A
:10016A001F920F920FB60F9211242F938F939F9382
:10017A0082B393B3806893BB82BB2FEF80E792E090
:10018A00215080409040E1F700C0000082B393B351
:10019A008F7793BB82BB9F918F912F910F900FBE48
:0601AA000F901F90189554
:0401B0000C940000AB
:00000001FF
