S00E00007461736B5F322E73726563D2
S11300000C942A000C9434000C9434000C943400A6
S11300100C9434000C9434000C9434000C9434008C
S11300200C9434000C9434000C9434000C9434007C
S11300300C9434000C9434000C9434000C9434006C
S11300400C9434000C9434000C9434000C9434005C
S11300500C94340011241FBECFE5D8E0DEBFCDBF21
S11300600E9436000C948A000C940000CF93DF9316
S113007000D0CDB7DEB71A8219828FEF8ABB14BACB
S113008081E085BB9899FECF29813A8181E090E097
S113009002C0880F991F2A95E2F79BB3892B8BBB6B
S11300A089819A8101969A8389832FEF84E39CE066
S11300B0215080409040E1F700C0000089819A817E
S11300C0089701F787E090E09A8389831EC0989986
S11300D01CC029813A8181E090E002C0880F991FF9
S11300E02A95E2F7809590959BB389238BBB8981F0
S11300F09A8101979A8389832FEF84E39CE02150AE
S113010080409040E1F700C0000089819A819923E2
S10B0110F4F6B8CFF894FFCF18
S9030000FC
