:100000000C942A000C9418010C9418010C941801FB
:100010000C9418010C9418010C9418010C941801FC
:100020000C9418010C9418010C9418010C941801EC
:100030000C9418010C9418010C9418010C941801DC
:100040000C9418010C9418010C9418010C941801CC
:100050000C94180111241FBECFE5D8E0DEBFCDBF40
:0C0060000E9409010C943400F894FFCFBA
:10006C00CF93DF93CDB7DEB781E390E021E330E0AF
:10007C00F90120812061FC01208381E390E021E3E0
:10008C0030E0F90120812062FC01208381E390E0C3
:10009C0021E330E0F90120812064FC01208381E31D
:1000AC0090E021E330E0F90120812068FC012083FD
:0800BC000000DF91CF910895CF
:1000C400CF93DF93CDB7DEB782E390E022E330E055
:1000D400F90120812062FC01208380E197E20E94E3
:1000E400EA0082E390E022E330E0F90120812F7DF1
:1000F400FC01208380ED97E00E94EA000000DF917C
:04010400CF910895FA
:10010800CF93DF93CDB7DEB782E390E022E330E010
:10011800F90120812064FC01208380E197E20E949C
:10012800EA0082E390E022E330E0F90120812F7BAE
:10013800FC01208380ED97E00E94EA000000DF9137
:04014800CF910895B6
:10014C00CF93DF93CDB7DEB782E390E022E330E0CC
:10015C00F90120812068FC01208380E197E20E9454
:10016C00EA0082E390E022E330E0F90120812F776E
:10017C00FC01208380ED97E00E94EA000000DF91F3
:04018C00CF91089572
:10019000CF93DF93CDB7DEB782E390E022E330E088
:1001A000F90120812061FC01208380E197E20E9417
:1001B000EA0082E390E022E330E0F90120812F7E23
:1001C000FC01208380ED97E00E94EA000000DF91AF
:0401D000CF9108952E
:1001D400CF93DF9300D000D0CDB7DEB79C838B8361
:1001E4001A82198205C089819A8101969A8389832A
:1001F40029813A818B819C8128173907A4F3000057
:0E0204000F900F900F900F90DF91CF91089503
:10021200CF93DF93CDB7DEB70E9436000E94620013
:0E0222000E9484000E94A6000E94C800F7CF30
:040230000C9400002A
:00000001FF
