:100000000C942A000C9434000C9434000C943400AA
:100010000C9434000C9434000C9434000C94340090
:100020000C9434000C9434000C9434000C94340080
:100030000C9434000C9434000C9434000C94340070
:100040000C9434000C9434000C9434000C94340060
:100050000C94340011241FBECFE5D8E0DEBFCDBF25
:100060000E9436000C9485000C940000CF93DF931F
:1000700000D0CDB7DEB71A8219828FEF8BBB2981F2
:100080003A8181E090E002C0880F991F2A95E2F73B
:100090009AB3892B8ABB2FEF84E39CE021508040E8
:1000A0009040E1F700C0000089819A8101969A830F
:1000B000898389819A81089711F787E090E09A8374
:1000C000898329813A8181E090E002C0880F991FDD
:1000D0002A95E2F7809590959AB389238ABB2FEFF2
:1000E00084E39CE0215080409040E1F700C0000094
:1000F00089819A8199231CF41A821982C0CF89813F
:0E0100009A8101979A838983DCCFF894FFCF10
:00000001FF
